{
  "_format": "hh-sol-artifact-1",
  "contractName": "DripFaucet",
  "sourceName": "contracts/DripFaucet.sol",
  "abi": [
    {
      "inputs": [
        {
          "internalType": "address",
          "name": "tokenAddress",
          "type": "address"
        },
        {
          "internalType": "uint256",
          "name": "_buyTimeLimit",
          "type": "uint256"
        },
        {
          "internalType": "uint256",
          "name": "_faucetValue",
          "type": "uint256"
        }
      ],
      "stateMutability": "nonpayable",
      "type": "constructor"
    },
    {
      "inputs": [
        {
          "internalType": "address",
          "name": "recipient",
          "type": "address"
        }
      ],
      "name": "getNextBuyTime",
      "outputs": [
        {
          "internalType": "uint256",
          "name": "",
          "type": "uint256"
        }
      ],
      "stateMutability": "view",
      "type": "function"
    },
    {
      "inputs": [
        {
          "internalType": "address",
          "name": "recipient",
          "type": "address"
        }
      ],
      "name": "requestTokens",
      "outputs": [],
      "stateMutability": "nonpayable",
      "type": "function"
    }
  ],
  "bytecode": "0x60e060405234801561001057600080fd5b5060405161079038038061079083398181016040528101906100329190610117565b8273ffffffffffffffffffffffffffffffffffffffff1660808173ffffffffffffffffffffffffffffffffffffffff16815250508160a081815250508060c0818152505050505061016a565b600080fd5b600073ffffffffffffffffffffffffffffffffffffffff82169050919050565b60006100ae82610083565b9050919050565b6100be816100a3565b81146100c957600080fd5b50565b6000815190506100db816100b5565b92915050565b6000819050919050565b6100f4816100e1565b81146100ff57600080fd5b50565b600081519050610111816100eb565b92915050565b6000806000606084860312156101305761012f61007e565b5b600061013e868287016100cc565b935050602061014f86828701610102565b925050604061016086828701610102565b9150509250925092565b60805160a05160c0516105f7610199600039600061022301526000610178015260006101e601526105f76000f3fe608060405234801561001057600080fd5b50600436106100365760003560e01c8063580f39041461003b578063fe916c9914610057575b600080fd5b61005560048036038101906100509190610351565b610087565b005b610071600480360381019061006c9190610351565b6102a6565b60405161007e9190610397565b60405180910390f35b600073ffffffffffffffffffffffffffffffffffffffff168173ffffffffffffffffffffffffffffffffffffffff16036100f6576040517f08c379a00000000000000000000000000000000000000000000000000000000081526004016100ed9061040f565b60405180910390fd5b6000808273ffffffffffffffffffffffffffffffffffffffff1673ffffffffffffffffffffffffffffffffffffffff168152602001908152602001600020544211610176576040517f08c379a000000000000000000000000000000000000000000000000000000000815260040161016d906104a1565b60405180910390fd5b7f0000000000000000000000000000000000000000000000000000000000000000426101a291906104f0565b6000808373ffffffffffffffffffffffffffffffffffffffff1673ffffffffffffffffffffffffffffffffffffffff168152602001908152602001600020819055507f000000000000000000000000000000000000000000000000000000000000000073ffffffffffffffffffffffffffffffffffffffff1663a9059cbb827f00000000000000000000000000000000000000000000000000000000000000006040518363ffffffff1660e01b815260040161025f929190610533565b6020604051808303816000875af115801561027e573d6000803e3d6000fd5b505050506040513d601f19601f820116820180604052508101906102a29190610594565b5050565b60008060008373ffffffffffffffffffffffffffffffffffffffff1673ffffffffffffffffffffffffffffffffffffffff168152602001908152602001600020549050919050565b600080fd5b600073ffffffffffffffffffffffffffffffffffffffff82169050919050565b600061031e826102f3565b9050919050565b61032e81610313565b811461033957600080fd5b50565b60008135905061034b81610325565b92915050565b600060208284031215610367576103666102ee565b5b60006103758482850161033c565b91505092915050565b6000819050919050565b6103918161037e565b82525050565b60006020820190506103ac6000830184610388565b92915050565b600082825260208201905092915050565b7f49742073686f756c6420626520612076616c6964206164647265737300000000600082015250565b60006103f9601c836103b2565b9150610404826103c3565b602082019050919050565b60006020820190508181036000830152610428816103ec565b9050919050565b7f596f7572206e65787420726571756573742074696d65206973206e6f7420726560008201527f6163686564207965740000000000000000000000000000000000000000000000602082015250565b600061048b6029836103b2565b91506104968261042f565b604082019050919050565b600060208201905081810360008301526104ba8161047e565b9050919050565b7f4e487b7100000000000000000000000000000000000000000000000000000000600052601160045260246000fd5b60006104fb8261037e565b91506105068361037e565b925082820190508082111561051e5761051d6104c1565b5b92915050565b61052d81610313565b82525050565b60006040820190506105486000830185610524565b6105556020830184610388565b9392505050565b60008115159050919050565b6105718161055c565b811461057c57600080fd5b50565b60008151905061058e81610568565b92915050565b6000602082840312156105aa576105a96102ee565b5b60006105b88482850161057f565b9150509291505056fea2646970667358221220a05c102a9b4687a02e972e4414fc9f115042fbaad4a49f2d8d05f04dcddc4ce764736f6c63430008140033",
  "linkReferences": {},
  "deployedLinkReferences": {}
}